{
  "contractName": "Lottery",
  "abi": [
    {
      "inputs": [],
      "payable": false,
      "stateMutability": "nonpayable",
      "type": "constructor"
    },
    {
      "anonymous": false,
      "inputs": [
        {
          "indexed": false,
          "internalType": "uint256",
          "name": "index",
          "type": "uint256"
        },
        {
          "indexed": false,
          "internalType": "address",
          "name": "bettor",
          "type": "address"
        },
        {
          "indexed": false,
          "internalType": "uint256",
          "name": "amount",
          "type": "uint256"
        },
        {
          "indexed": false,
          "internalType": "bytes1",
          "name": "challenges",
          "type": "bytes1"
        },
        {
          "indexed": false,
          "internalType": "uint256",
          "name": "answerBlockNumber",
          "type": "uint256"
        }
      ],
      "name": "BET",
      "type": "event"
    },
    {
      "anonymous": false,
      "inputs": [
        {
          "indexed": false,
          "internalType": "uint256",
          "name": "index",
          "type": "uint256"
        },
        {
          "indexed": false,
          "internalType": "address",
          "name": "bettor",
          "type": "address"
        },
        {
          "indexed": false,
          "internalType": "uint256",
          "name": "amount",
          "type": "uint256"
        },
        {
          "indexed": false,
          "internalType": "bytes1",
          "name": "challenges",
          "type": "bytes1"
        },
        {
          "indexed": false,
          "internalType": "bytes1",
          "name": "answer",
          "type": "bytes1"
        },
        {
          "indexed": false,
          "internalType": "uint256",
          "name": "answerBlockNumber",
          "type": "uint256"
        }
      ],
      "name": "DRAW",
      "type": "event"
    },
    {
      "anonymous": false,
      "inputs": [
        {
          "indexed": false,
          "internalType": "uint256",
          "name": "index",
          "type": "uint256"
        },
        {
          "indexed": false,
          "internalType": "address",
          "name": "bettor",
          "type": "address"
        },
        {
          "indexed": false,
          "internalType": "uint256",
          "name": "amount",
          "type": "uint256"
        },
        {
          "indexed": false,
          "internalType": "bytes1",
          "name": "challenges",
          "type": "bytes1"
        },
        {
          "indexed": false,
          "internalType": "bytes1",
          "name": "answer",
          "type": "bytes1"
        },
        {
          "indexed": false,
          "internalType": "uint256",
          "name": "answerBlockNumber",
          "type": "uint256"
        }
      ],
      "name": "FAIL",
      "type": "event"
    },
    {
      "anonymous": false,
      "inputs": [
        {
          "indexed": false,
          "internalType": "uint256",
          "name": "index",
          "type": "uint256"
        },
        {
          "indexed": false,
          "internalType": "address",
          "name": "bettor",
          "type": "address"
        },
        {
          "indexed": false,
          "internalType": "uint256",
          "name": "amount",
          "type": "uint256"
        },
        {
          "indexed": false,
          "internalType": "bytes1",
          "name": "challenges",
          "type": "bytes1"
        },
        {
          "indexed": false,
          "internalType": "uint256",
          "name": "answerBlockNumber",
          "type": "uint256"
        }
      ],
      "name": "REFUND",
      "type": "event"
    },
    {
      "anonymous": false,
      "inputs": [
        {
          "indexed": false,
          "internalType": "uint256",
          "name": "index",
          "type": "uint256"
        },
        {
          "indexed": false,
          "internalType": "address",
          "name": "bettor",
          "type": "address"
        },
        {
          "indexed": false,
          "internalType": "uint256",
          "name": "amount",
          "type": "uint256"
        },
        {
          "indexed": false,
          "internalType": "bytes1",
          "name": "challenges",
          "type": "bytes1"
        },
        {
          "indexed": false,
          "internalType": "bytes1",
          "name": "answer",
          "type": "bytes1"
        },
        {
          "indexed": false,
          "internalType": "uint256",
          "name": "answerBlockNumber",
          "type": "uint256"
        }
      ],
      "name": "WIN",
      "type": "event"
    },
    {
      "constant": true,
      "inputs": [],
      "name": "answerForTest",
      "outputs": [
        {
          "internalType": "bytes32",
          "name": "",
          "type": "bytes32"
        }
      ],
      "payable": false,
      "stateMutability": "view",
      "type": "function"
    },
    {
      "constant": true,
      "inputs": [],
      "name": "owner",
      "outputs": [
        {
          "internalType": "address payable",
          "name": "",
          "type": "address"
        }
      ],
      "payable": false,
      "stateMutability": "view",
      "type": "function"
    },
    {
      "constant": true,
      "inputs": [],
      "name": "getSomeValue",
      "outputs": [
        {
          "internalType": "uint256",
          "name": "value",
          "type": "uint256"
        }
      ],
      "payable": false,
      "stateMutability": "pure",
      "type": "function"
    },
    {
      "constant": true,
      "inputs": [],
      "name": "getPot",
      "outputs": [
        {
          "internalType": "uint256",
          "name": "pot",
          "type": "uint256"
        }
      ],
      "payable": false,
      "stateMutability": "view",
      "type": "function"
    },
    {
      "constant": false,
      "inputs": [
        {
          "internalType": "bytes1",
          "name": "challenges",
          "type": "bytes1"
        }
      ],
      "name": "getAndDistribute",
      "outputs": [
        {
          "internalType": "bool",
          "name": "result",
          "type": "bool"
        }
      ],
      "payable": true,
      "stateMutability": "payable",
      "type": "function"
    },
    {
      "constant": false,
      "inputs": [
        {
          "internalType": "bytes1",
          "name": "challenges",
          "type": "bytes1"
        }
      ],
      "name": "bet",
      "outputs": [
        {
          "internalType": "bool",
          "name": "result",
          "type": "bool"
        }
      ],
      "payable": true,
      "stateMutability": "payable",
      "type": "function"
    },
    {
      "constant": false,
      "inputs": [],
      "name": "distrubute",
      "outputs": [],
      "payable": false,
      "stateMutability": "nonpayable",
      "type": "function"
    },
    {
      "constant": false,
      "inputs": [
        {
          "internalType": "bytes32",
          "name": "answer",
          "type": "bytes32"
        }
      ],
      "name": "setAnswerForTest",
      "outputs": [
        {
          "internalType": "bool",
          "name": "result",
          "type": "bool"
        }
      ],
      "payable": false,
      "stateMutability": "nonpayable",
      "type": "function"
    },
    {
      "constant": true,
      "inputs": [
        {
          "internalType": "bytes1",
          "name": "challenges",
          "type": "bytes1"
        },
        {
          "internalType": "bytes32",
          "name": "answer",
          "type": "bytes32"
        }
      ],
      "name": "isMatch",
      "outputs": [
        {
          "internalType": "enum Lottery.BettingResult",
          "name": "",
          "type": "uint8"
        }
      ],
      "payable": false,
      "stateMutability": "pure",
      "type": "function"
    },
    {
      "constant": true,
      "inputs": [
        {
          "internalType": "uint256",
          "name": "index",
          "type": "uint256"
        }
      ],
      "name": "getBetInfo",
      "outputs": [
        {
          "internalType": "uint256",
          "name": "answerBlockNumber",
          "type": "uint256"
        },
        {
          "internalType": "address",
          "name": "bettor",
          "type": "address"
        },
        {
          "internalType": "bytes1",
          "name": "challenges",
          "type": "bytes1"
        }
      ],
      "payable": false,
      "stateMutability": "view",
      "type": "function"
    }
  ],
  "bytecode": "0x60806040526000600560006101000a81548160ff02191690831515021790555034801561002b57600080fd5b5033600360006101000a81548173ffffffffffffffffffffffffffffffffffffffff021916908373ffffffffffffffffffffffffffffffffffffffff1602179055506115ee8061007c6000396000f3fe6080604052600436106100915760003560e01c80638da5cb5b116100595780638da5cb5b1461022357806399a167d71461027a578063a40674b714610303578063f4b46f5b1461032e578063fb06a22e1461039657610091565b8063403c9fa8146100965780634d4aacad146100c15780637009fa36146100d857806379141f801461012b57806384f7e4f0146101f8575b600080fd5b3480156100a257600080fd5b506100ab6103fe565b6040518082815260200191505060405180910390f35b3480156100cd57600080fd5b506100d6610408565b005b3480156100e457600080fd5b50610111600480360360208110156100fb57600080fd5b8101908080359060200190929190505050610ae2565b604051808215151515815260200191505060405180910390f35b34801561013757600080fd5b506101646004803603602081101561014e57600080fd5b8101908080359060200190929190505050610b9a565b604051808481526020018373ffffffffffffffffffffffffffffffffffffffff1673ffffffffffffffffffffffffffffffffffffffff168152602001827effffffffffffffffffffffffffffffffffffffffffffffffffffffffffffff19167effffffffffffffffffffffffffffffffffffffffffffffffffffffffffffff19168152602001935050505060405180910390f35b34801561020457600080fd5b5061020d610c9f565b6040518082815260200191505060405180910390f35b34801561022f57600080fd5b50610238610ca5565b604051808273ffffffffffffffffffffffffffffffffffffffff1673ffffffffffffffffffffffffffffffffffffffff16815260200191505060405180910390f35b34801561028657600080fd5b506102df6004803603604081101561029d57600080fd5b8101908080357effffffffffffffffffffffffffffffffffffffffffffffffffffffffffffff1916906020019092919080359060200190929190505050610ccb565b604051808260028111156102ef57fe5b60ff16815260200191505060405180910390f35b34801561030f57600080fd5b5061031861104c565b6040518082815260200191505060405180910390f35b61037c6004803603602081101561034457600080fd5b8101908080357effffffffffffffffffffffffffffffffffffffffffffffffffffffffffffff19169060200190929190505050611055565b604051808215151515815260200191505060405180910390f35b6103e4600480360360208110156103ac57600080fd5b8101908080357effffffffffffffffffffffffffffffffffffffffffffffffffffffffffffff19169060200190929190505050611226565b604051808215151515815260200191505060405180910390f35b6000600454905090565b600080610413611535565b60008060015494505b600054851015610ad45760026000868152602001908152602001600020604051806060016040529081600082015481526020016001820160009054906101000a900473ffffffffffffffffffffffffffffffffffffffff1673ffffffffffffffffffffffffffffffffffffffff1673ffffffffffffffffffffffffffffffffffffffff1681526020016001820160149054906101000a900460f81b7effffffffffffffffffffffffffffffffffffffffffffffffffffffffffffff19167effffffffffffffffffffffffffffffffffffffffffffffffffffffffffffff191681525050925061050e8360000151611243565b91506000600281111561051d57fe5b82600281111561052957fe5b141561099057600061053e8460000151611293565b905061054e846040015182610ccb565b91506001600281111561055d57fe5b82600281111561056957fe5b14156106c25761058884602001516611c37937e08000600454016112bb565b945060006004819055507f8219079e2d6c1192fb0ff7f78e6faaf5528ad6687e69749205d87bd4b156912b868560200151878760400151856000602081106105cc57fe5b1a60f81b8960000151604051808781526020018673ffffffffffffffffffffffffffffffffffffffff1673ffffffffffffffffffffffffffffffffffffffff168152602001858152602001847effffffffffffffffffffffffffffffffffffffffffffffffffffffffffffff19167effffffffffffffffffffffffffffffffffffffffffffffffffffffffffffff19168152602001837effffffffffffffffffffffffffffffffffffffffffffffffffffffffffffff19167effffffffffffffffffffffffffffffffffffffffffffffffffffffffffffff19168152602001828152602001965050505050505060405180910390a15b600060028111156106cf57fe5b8260028111156106db57fe5b1415610829576611c37937e080006004600082825401925050819055507f3b19d607433249d2ebc766ae82ca3848e9c064f1febb5147bc6e5b21d0adebc5868560200151600087604001518560006020811061073357fe5b1a60f81b8960000151604051808781526020018673ffffffffffffffffffffffffffffffffffffffff1673ffffffffffffffffffffffffffffffffffffffff168152602001858152602001847effffffffffffffffffffffffffffffffffffffffffffffffffffffffffffff19167effffffffffffffffffffffffffffffffffffffffffffffffffffffffffffff19168152602001837effffffffffffffffffffffffffffffffffffffffffffffffffffffffffffff19167effffffffffffffffffffffffffffffffffffffffffffffffffffffffffffff19168152602001828152602001965050505050505060405180910390a15b60028081111561083557fe5b82600281111561084157fe5b141561098e5761085c84602001516611c37937e080006112bb565b94507f72ec2e949e4fad9380f9d5db3e2ed0e71cf22c51d8d66424508bdc761a3f4b0e8685602001518787604001518560006020811061089857fe5b1a60f81b8960000151604051808781526020018673ffffffffffffffffffffffffffffffffffffffff1673ffffffffffffffffffffffffffffffffffffffff168152602001858152602001847effffffffffffffffffffffffffffffffffffffffffffffffffffffffffffff19167effffffffffffffffffffffffffffffffffffffffffffffffffffffffffffff19168152602001837effffffffffffffffffffffffffffffffffffffffffffffffffffffffffffff19167effffffffffffffffffffffffffffffffffffffffffffffffffffffffffffff19168152602001828152602001965050505050505060405180910390a15b505b6001600281111561099d57fe5b8260028111156109a957fe5b14156109b457610ad4565b6002808111156109c057fe5b8260028111156109cc57fe5b1415610abd576109e783602001516611c37937e080006112bb565b93507f59c0185881271a0f53d43e6ab9310091408f9e0ff9ae2512613de800f26b8de48584602001518686604001518760000151604051808681526020018573ffffffffffffffffffffffffffffffffffffffff1673ffffffffffffffffffffffffffffffffffffffff168152602001848152602001837effffffffffffffffffffffffffffffffffffffffffffffffffffffffffffff19167effffffffffffffffffffffffffffffffffffffffffffffffffffffffffffff191681526020018281526020019550505050505060405180910390a15b610ac68561138d565b50848060010195505061041c565b846001819055505050505050565b6000600360009054906101000a900473ffffffffffffffffffffffffffffffffffffffff1673ffffffffffffffffffffffffffffffffffffffff163373ffffffffffffffffffffffffffffffffffffffff1614610b8a576040517f08c379a000000000000000000000000000000000000000000000000000000000815260040180806020018281038252602b81526020018061158f602b913960400191505060405180910390fd5b8160068190555060019050919050565b6000806000610ba7611535565b60026000868152602001908152602001600020604051806060016040529081600082015481526020016001820160009054906101000a900473ffffffffffffffffffffffffffffffffffffffff1673ffffffffffffffffffffffffffffffffffffffff1673ffffffffffffffffffffffffffffffffffffffff1681526020016001820160149054906101000a900460f81b7effffffffffffffffffffffffffffffffffffffffffffffffffffffffffffff19167effffffffffffffffffffffffffffffffffffffffffffffffffffffffffffff1916815250509050806000015193508060200151925080604001519150509193909250565b60065481565b600360009054906101000a900473ffffffffffffffffffffffffffffffffffffffff1681565b6000808390506000849050600084600060208110610ce557fe5b1a60f81b9050600085600060208110610cfa57fe5b1a60f81b90506004847effffffffffffffffffffffffffffffffffffffffffffffffffffffffffffff1916901c93506004847effffffffffffffffffffffffffffffffffffffffffffffffffffffffffffff1916901b93506004827effffffffffffffffffffffffffffffffffffffffffffffffffffffffffffff1916901c91506004827effffffffffffffffffffffffffffffffffffffffffffffffffffffffffffff1916901b91506004837effffffffffffffffffffffffffffffffffffffffffffffffffffffffffffff1916901b92506004837effffffffffffffffffffffffffffffffffffffffffffffffffffffffffffff1916901c92506004817effffffffffffffffffffffffffffffffffffffffffffffffffffffffffffff1916901b90506004817effffffffffffffffffffffffffffffffffffffffffffffffffffffffffffff1916901c9050837effffffffffffffffffffffffffffffffffffffffffffffffffffffffffffff1916827effffffffffffffffffffffffffffffffffffffffffffffffffffffffffffff1916148015610ede5750827effffffffffffffffffffffffffffffffffffffffffffffffffffffffffffff1916817effffffffffffffffffffffffffffffffffffffffffffffffffffffffffffff1916145b15610ef0576001945050505050611046565b837effffffffffffffffffffffffffffffffffffffffffffffffffffffffffffff1916827effffffffffffffffffffffffffffffffffffffffffffffffffffffffffffff19161480610f855750827effffffffffffffffffffffffffffffffffffffffffffffffffffffffffffff1916817effffffffffffffffffffffffffffffffffffffffffffffffffffffffffffff1916145b15610f97576002945050505050611046565b837effffffffffffffffffffffffffffffffffffffffffffffffffffffffffffff1916827effffffffffffffffffffffffffffffffffffffffffffffffffffffffffffff19161415801561102f5750827effffffffffffffffffffffffffffffffffffffffffffffffffffffffffffff1916817effffffffffffffffffffffffffffffffffffffffffffffffffffffffffffff191614155b15611041576000945050505050611046565b505050505b92915050565b60006005905090565b60006611c37937e0800034146110d3576040517f08c379a000000000000000000000000000000000000000000000000000000000815260040180806020018281038252600e8152602001807f6e6f7420656e6f7567682045544800000000000000000000000000000000000081525060200191505060405180910390fd5b6110dc826113f1565b61114e576040517f08c379a000000000000000000000000000000000000000000000000000000000815260040180806020018281038252601a8152602001807f4661696c20746f206164642061206e65772042657420496e666f00000000000081525060200191505060405180910390fd5b7f100791de9f40bf2d56ffa6dc5597d2fd0b2703ea70bc7548cd74c04f5d215ab760016000540333348560034301604051808681526020018573ffffffffffffffffffffffffffffffffffffffff1673ffffffffffffffffffffffffffffffffffffffff168152602001848152602001837effffffffffffffffffffffffffffffffffffffffffffffffffffffffffffff19167effffffffffffffffffffffffffffffffffffffffffffffffffffffffffffff191681526020018281526020019550505050505060405180910390a160019050919050565b600061123182611055565b5061123a610408565b60019050919050565b600081431180156112575750816101000143105b15611265576000905061128e565b814311611275576001905061128e565b61010082014310611289576002905061128e565b600290505b919050565b6000600560009054906101000a900460ff166112b1576006546112b4565b81405b9050919050565b600080606483816112c857fe5b049050600081840390508473ffffffffffffffffffffffffffffffffffffffff166108fc829081150290604051600060405180830381858888f19350505050158015611318573d6000803e3d6000fd5b50600360009054906101000a900473ffffffffffffffffffffffffffffffffffffffff1673ffffffffffffffffffffffffffffffffffffffff166108fc839081150290604051600060405180830381858888f19350505050158015611381573d6000803e3d6000fd5b50809250505092915050565b6000600260008381526020019081526020016000206000808201600090556001820160006101000a81549073ffffffffffffffffffffffffffffffffffffffff02191690556001820160146101000a81549060ff0219169055505060019050919050565b60006113fb611535565b33816020019073ffffffffffffffffffffffffffffffffffffffff16908173ffffffffffffffffffffffffffffffffffffffff1681525050600343018160000181815250508281604001907effffffffffffffffffffffffffffffffffffffffffffffffffffffffffffff191690817effffffffffffffffffffffffffffffffffffffffffffffffffffffffffffff1916815250508060026000805481526020019081526020016000206000820151816000015560208201518160010160006101000a81548173ffffffffffffffffffffffffffffffffffffffff021916908373ffffffffffffffffffffffffffffffffffffffff16021790555060408201518160010160146101000a81548160ff021916908360f81c021790555090505060008081548092919060010191905055506001915050919050565b604051806060016040528060008152602001600073ffffffffffffffffffffffffffffffffffffffff16815260200160007effffffffffffffffffffffffffffffffffffffffffffffffffffffffffffff19168152509056fe4f6e6c79206f776e65722063616e207365742074686520616e7377657220666f722074657374206d6f6465a265627a7a72315820e54836b6087761ab7c0fde5b458208971f48100c0d558b80f909ff2405ab372964736f6c63430005100032",
  "source": "// SPDX-License-Identifier: MIT\npragma solidity >=0.4.22 <0.8.0;\n\ncontract Lottery {\n    struct BetInfo {\n        uint256 answerBlockNumber;\n        address payable bettor;\n        bytes1 challenges;\n    }\n\n    uint256 private _tail;\n    uint256 private _head;\n    mapping(uint256 => BetInfo) private _bets;\n\n    address payable public owner;\n\n    uint256 internal constant BLOCK_LIMIT = 256;\n    uint256 internal constant BET_BLOCK_INTERVAL = 3;\n    uint256 internal constant BET_AMOUNT = 5 * 10**15;\n    uint256 private _pot;\n\n    bool private mode = false; // false: test mode, true: real mode\n    bytes32 public answerForTest;\n\n    enum BlockStatus {Checkable, NotRevealed, BlockLimitPassed}\n    enum BettingResult {Fail, Win, Draw}\n\n    event BET(\n        uint256 index,\n        address bettor,\n        uint256 amount,\n        bytes1 challenges,\n        uint256 answerBlockNumber\n    );\n    event WIN(uint256 index, address bettor, uint256 amount, bytes1 challenges, byte answer, uint256 answerBlockNumber);\n    event FAIL(uint256 index, address bettor, uint256 amount, bytes1 challenges, byte answer, uint256 answerBlockNumber);\n    event DRAW(uint256 index, address bettor, uint256 amount, bytes1 challenges, byte answer, uint256 answerBlockNumber);\n    event REFUND(uint256 index, address bettor, uint256 amount, bytes1 challenges, uint256 answerBlockNumber);\n\n    constructor() public {\n        owner = msg.sender;\n    }\n\n    function getSomeValue() public pure returns (uint256 value) {\n        return 5;\n    }\n\n    function getPot() public view returns (uint256 pot) {\n        return _pot;\n    }\n    \n    /**\n     * @dev 배팅과 정답체크를 한다. 유저는 0.005 ETH를 보내야 한다. 배팅용 1 byte 글자를 보낸다.\n     * 큐에 저장된 베팅 정보는 이후 distrubute 함수에서 해결된다.\n     * @param challenges 유저가 배팅하는 글자.\n     * @return result 함수가 잘 수행 되었는 지 확인하는 bool 값.\n     */\n     \n    function getAndDistribute(bytes1 challenges) public payable returns(bool result){\n        bet(challenges);\n        distrubute();\n        return true;\n    }\n\n    function bet(bytes1 challenges) public payable returns (bool result) {\n        //check the proper ether was sent\n        require(msg.value == BET_AMOUNT, \"not enough ETH\");\n        require(pushBet(challenges), \"Fail to add a new Bet Info\");\n        emit BET(\n            _tail - 1,\n            msg.sender,\n            msg.value,\n            challenges,\n            block.number + BET_BLOCK_INTERVAL\n        );\n        //push log\n        //event log\n        return true;\n    }\n\n    //save the bet to the queue\n\n    //Distribute\n    /**\n     * @dev 베팅 결과 값을 확인 하고 팟머니를 분배한다.\n     * 정답실퍠: 팟머니 축적, 정답 맞춤 : 팟머니 획득, 한글자 맞춤 혹은 정답확인 불가 : 베팅금액만 획득\n     */\n    function distrubute() public {\n        uint256 cur;\n        uint256 transferAmount;\n\n        BetInfo memory b;\n        BlockStatus currentBlockStatus;\n        BettingResult currentBettingResult;\n\n        for (cur = _head; cur < _tail; cur++) {\n            b = _bets[cur];\n            currentBlockStatus = getBlockStatus(b.answerBlockNumber);\n            //checkable : block.number > AnswerBlockNumber && block.number < BLOCK_LIMIT + AnswerBlockNumber\n            if (currentBlockStatus == BlockStatus.Checkable) {\n                bytes32 answerBlockHash = getAnswerBlockHash(b.answerBlockNumber);\n                currentBettingResult = isMatch(\n                    b.challenges,answerBlockHash\n                );\n                // if win, bettor gets pot\n                if(currentBettingResult == BettingResult.Win){\n                    // transfer pot\n                    transferAmount = transferAfterPayingFee(b.bettor, _pot + BET_AMOUNT);\n                    // pot = 0\n                    _pot = 0;\n                    // emit event WIN\n                    emit WIN(cur, b.bettor, transferAmount, b.challenges, answerBlockHash[0], b.answerBlockNumber);\n                }\n                // if fail, bettor money goes to pot\n                 if(currentBettingResult == BettingResult.Fail){\n                    // pot = pot + BET_AMOUNT\n                    _pot += BET_AMOUNT;\n                    // emit event FAIL\n                    emit FAIL(cur, b.bettor, 0, b.challenges, answerBlockHash[0], b.answerBlockNumber);\n                }\n                // if draw, refund bettor's money\n                 if(currentBettingResult == BettingResult.Draw){\n                    // transfer only BET_AMOUNT\n                    transferAmount = transferAfterPayingFee(b.bettor, BET_AMOUNT);\n                    // emit event DRAW\n                    emit DRAW(cur, b.bettor, transferAmount, b.challenges, answerBlockHash[0], b.answerBlockNumber);\n                }\n            }\n            //not revealed: block.number <= AnswerBlockNumber\n            if (currentBlockStatus == BlockStatus.NotRevealed) {\n                break;\n            }\n            //block limit passed: block.number >= AnswerBlockNumber + BLOCK_LIMIT\n            if (currentBlockStatus == BlockStatus.BlockLimitPassed) {\n                //refund\n                transferAmount = transferAfterPayingFee(b.bettor, BET_AMOUNT);\n                //emit refund\n                emit REFUND(cur, b.bettor, transferAmount, b.challenges, b.answerBlockNumber);\n            }\n            popBet(cur);\n            //check the answer\n        }\n        _head = cur;\n    }\n\n    function transferAfterPayingFee(address payable addr, uint256 amount) internal returns (uint256){\n        uint256 fee = amount / 100;\n        uint256 amountWithoutFee = amount - fee;\n        // transfer to addr\n        addr.transfer(amountWithoutFee);\n        // transfer to owner\n        owner.transfer(fee);\n        return amountWithoutFee;\n    }\n\n    function setAnswerForTest(bytes32 answer) public returns (bool result){\n        require(msg.sender == owner, \"Only owner can set the answer for test mode\");\n        answerForTest = answer;\n        return true;\n    }\n\n    function getAnswerBlockHash(uint256 answerBlockNumber) internal view returns (bytes32 answer){\n        return mode ? blockhash(answerBlockNumber): answerForTest;\n    }\n\n    // @dev 배팅글자와 정답을 확인한다.\n    // @param challenges 베터가 배팅한 글자\n    // @param answer 블랙해쉬값\n    // @return 정답결과\n\n    function isMatch(bytes1 challenges, bytes32 answer)\n        public\n        pure\n        returns (BettingResult)\n    {\n        // challenges 0xab\n        // answer 0xab ....ff 32bytes\n        bytes1 c1 = challenges;\n        bytes1 c2 = challenges;\n        bytes1 a1 = answer[0];\n        bytes1 a2 = answer[0];\n\n        //get first number\n        c1 = c1 >> 4; //0xab -> 0x0a\n        c1 = c1 << 4; //0x0a -> 0xa0\n\n        a1 = a1 >> 4;\n        a1 = a1 << 4;\n\n        //get second number\n        c2 = c2 << 4; // 0xab -> 0xb0\n        c2 = c2 >> 4; // 0xb0 -> 0x0b\n\n        a2 = a2 << 4;\n        a2 = a2 >> 4;\n\n        if (a1 == c1 && a2 == c2) {\n            return BettingResult.Win;\n        }\n        if (a1 == c1 || a2 == c2) {\n            return BettingResult.Draw;\n        }\n        if (a1 != c1 && a2 != c2) {\n            return BettingResult.Fail;\n        }\n    }\n\n    function getBlockStatus(uint256 answerBlockNumber)\n        internal\n        view\n        returns (BlockStatus)\n    {\n        if (\n            block.number > answerBlockNumber &&\n            block.number < BLOCK_LIMIT + answerBlockNumber\n        ) {\n            return BlockStatus.Checkable;\n        }\n        if (block.number <= answerBlockNumber) {\n            return BlockStatus.NotRevealed;\n        }\n        if (block.number >= answerBlockNumber + BLOCK_LIMIT) {\n            return BlockStatus.BlockLimitPassed;\n        }\n        return BlockStatus.BlockLimitPassed;\n    }\n\n    function getBetInfo(uint256 index)\n        public\n        view\n        returns (\n            uint256 answerBlockNumber,\n            address bettor,\n            bytes1 challenges\n        )\n    {\n        BetInfo memory b = _bets[index];\n        answerBlockNumber = b.answerBlockNumber;\n        bettor = b.bettor;\n        challenges = b.challenges;\n    }\n\n    function pushBet(bytes1 challenges) internal returns (bool) {\n        BetInfo memory b;\n        b.bettor = msg.sender; // 20byte 20000gas\n        b.answerBlockNumber = block.number + BET_BLOCK_INTERVAL; //32byte  20000gas\n        b.challenges = challenges; //byte\n\n        _bets[_tail] = b;\n        _tail++; //32byte 20000gas 또 값을 바꿀때 5000gas\n\n        return true;\n    }\n\n    function popBet(uint256 index) internal returns (bool) {\n        delete _bets[index];\n        return true;\n    }\n}\n",
  "sourcePath": "/Users/zizimoos/Documents/bcmern/firstEth/lottSmartContract/contracts/Lottery.sol",
  "compiler": {
    "name": "solc",
    "version": "0.5.16+commit.9c3226ce.Emscripten.clang"
  },
  "schemaVersion": "3.2.4",
  "updatedAt": "2020-09-05T15:25:33.448Z",
  "devdoc": {
    "methods": {
      "distrubute()": {
        "details": "베팅 결과 값을 확인 하고 팟머니를 분배한다. 정답실퍠: 팟머니 축적, 정답 맞춤 : 팟머니 획득, 한글자 맞춤 혹은 정답확인 불가 : 베팅금액만 획득"
      },
      "getAndDistribute(bytes1)": {
        "details": "배팅과 정답체크를 한다. 유저는 0.005 ETH를 보내야 한다. 배팅용 1 byte 글자를 보낸다. 큐에 저장된 베팅 정보는 이후 distrubute 함수에서 해결된다.",
        "params": {
          "challenges": "유저가 배팅하는 글자."
        },
        "return": "result 함수가 잘 수행 되었는 지 확인하는 bool 값."
      }
    }
  },
  "userdoc": {
    "methods": {}
  }
}